:100000000C946E000C9496000C9496000C94960040
:100010000C9496000C9496000C9496000C94960008
:100020000C9496000C9496000C9496000C949600F8
:100030000C9496000C9496000C9496000C949600E8
:100040000C94C1030C9496000C948F030C946903D8
:100050000C9496000C9496000C9496000C949600C8
:100060000C9496000C9496000000000024002700D9
:100070002A00000000002300260029006D290063EB
:100080006D2C20006D6D20280044697374616E63CF
:10009000653A200000000000250028002B00040421
:1000A0000404040404040202020202020303030320
:1000B00003030102040810204080010204081020FC
:1000C00001020408102000000008000201000003E3
:1000D00004070000000000000000A60511241FBE58
:1000E000CFEFD8E0DEBFCDBF11E0A0E0B1E0ECE79C
:1000F000F0E102C005900D92A232B107D9F721E0DC
:10010000A2E2B1E001C01D92A83CB207E1F710E005
:10011000CEE6D0E004C02197FE010E943108CD3622
:10012000D107C9F70E9450040C943C080C940000BD
:10013000E8ECF0E02491E4EBF0E09491E0EAF0E008
:10014000E491EE2309F43BC0222339F1233091F0EE
:1001500038F42130A9F0223001F524B52F7D12C0EA
:10016000273091F02830A1F02430B9F4209180009C
:100170002F7D03C0209180002F77209380000DC039
:1001800024B52F7724BD09C02091B0002F7703C07C
:100190002091B0002F7D2093B000F0E0EE0FFF1F04
:1001A000EC56FF4FA591B4912FB7F894EC918111C3
:1001B00003C090959E2301C09E2B9C932FBF089552
:1001C0000F931F93CF93DF938C01C0E0D0E0F80131
:1001D000EC0FFD1F6491662371F0E0912B01F0910B
:1001E0002C010190F081E02D8BE291E00995892BA3
:1001F00011F02196ECCFCE01DF91CF911F910F919D
:100200000895CF92DF92EF92FF920F931F93CF93B7
:10021000DF936C017A018B01C0E0D0E0CE15DF05E1
:1002200089F0D8016D918D01D601ED91FC9101907D
:10023000F081E02DC6010995892B11F47E0102C0E1
:100240002196ECCFC701DF91CF911F910F91FF90C5
:10025000EF90DF90CF900895089580E090E00895AA
:10026000FC01538D448D252F30E0842F90E0821BBC
:10027000930B541710F0CF96089501970895FC0141
:10028000918D828D981761F0828DDF01A80FB11DCD
:100290005D968C91928D9F5F9F73928F90E00895F1
:1002A0008FEF9FEF0895FC01918D828D981731F0AB
:1002B000828DE80FF11D858D90E008958FEF9FEFFF
:1002C0000895FC01918D228D892F90E0805C9F4FD5
:1002D000821B91098F73992708958BE291E00E9408
:1002E000610121E0892B09F420E0822F0895FC01AF
:1002F000848DDF01A80FB11DA35ABF4F2C91848DAF
:1003000090E001968F739927848FA689B7892C93E3
:10031000A089B1898C9180648C93938D848D98137E
:1003200006C00288F389E02D80818F7D8083089547
:10033000EF92FF920F931F93CF93DF93EC0181E035
:10034000888F9B8D8C8D981305C0E889F9898081F1
:1003500085FD24C0F62E0B8D10E00F5F1F4F0F732D
:100360001127E02E8C8DE8120CC00FB607FCFACFD7
:10037000E889F989808185FFF5CFCE010E94770158
:10038000F1CF8B8DFE01E80FF11DE35AFF4FF08294
:100390000B8FEA89FB898081806207C0EE89FF8923
:1003A0006083E889F98980818064808381E090E0BE
:1003B000DF91CF911F910F91FF90EF900895CF9310
:1003C000DF93EC01888D8823C9F0EA89FB8980815D
:1003D00085FD05C0A889B9898C9186FD0FC00FB62F
:1003E00007FCF5CF808185FFF2CFA889B9898C9170
:1003F00085FFEDCFCE010E947701E7CFDF91CF914E
:10040000089580E090E0892B29F00E946D01811110
:100410000C94000008953FB7F894809127019091C3
:100420002801A0912901B0912A0126B5A89B05C0F9
:100430002F3F19F00196A11DB11D3FBFBA2FA92F63
:10044000982F8827820F911DA11DB11DBC01CD01E0
:1004500042E0660F771F881F991F4A95D1F70895CC
:10046000009769F0FC0101900020E9F73197AF0196
:10047000481B590BBC018BE291E00C94010180E018
:1004800090E008958F929F92AF92BF920F931F9327
:10049000CF93DF93CDB7DEB7A1970FB6F894DEBF49
:1004A0000FBECDBF19A2423008F44AE08E010F5DA5
:1004B0001F4F842E912CA12CB12CA50194010E94D8
:1004C0000F08E62FB901CA0101501109EA3014F4EE
:1004D000E05D01C0E95CD801EC93232B242B252B94
:1004E00061F7C8010E943002A1960FB6F894DEBFF2
:1004F0000FBECDBFDF91CF911F910F91BF90AF90F5
:100500009F908F9008954F925F926F927F928F92FB
:100510009F92AF92BF92CF92DF92EF92FF926B01C8
:100520007C01B42E9B01AC010E940A08882319F0BB
:1005300082E191E027C026013701E89477F82FEF98
:100540003FEF4FE75FE7C301B2010E940A08811144
:100550000DC02FEF3FEF4FE75FE7C301B2010E94ED
:10056000400618161CF486E191E00CC02FEF3FEF17
:100570004FE75FE4C701B6010E949807181684F49C
:100580008AE191E0FF90EF90DF90CF90BF90AF9025
:100590009F908F907F906F905F904F900C9430025F
:1005A0002FEF3FEF4FE75FECC701B6010E94400617
:1005B00087FDE6CF20E030E0A901C701B6010E9427
:1005C000400687FF11C0E0912B01F0912C010190B2
:1005D000F081E02D6DE28BE291E009954C01F7FA94
:1005E000F094F7F8F09402C0812C912CA12C60E0DB
:1005F00070E080E09FE3AB1441F020E030E040E2A7
:1006000051E40E944506A394F6CF9B01AC01C701BB
:10061000B6010E94D4052B013C010E94B7066B0174
:100620007C010E94E6069B01AC01C301B2010E945D
:10063000D3052B013C014AE0C701B6010E944202EA
:100640007C01E80CF91CBB2069F0E0912B01F091D2
:100650002C010190F081E02D6EE28BE291E0099592
:10066000E80EF91EDB2CDD2021F120E030E040E235
:1006700051E4C301B2010E949D072B013C010E947D
:10068000B7064B01A12CB12C4AE0C501B4010E9470
:100690004202E80EF91EC501B4010E94E6069B0164
:1006A000AC01C301B2010E94D3052B013C01DA94D5
:1006B000DACFC701FF90EF90DF90CF90BF90AF905F
:1006C0009F908F907F906F905F904F9008950E94C1
:1006D00037081F920F920FB60F9211242F933F935A
:1006E0004F935F936F937F938F939F93AF93BF933A
:1006F000EF93FF938BE291E00E947701FF91EF91DE
:10070000BF91AF919F918F917F916F915F914F9129
:100710003F912F910F900FBE0F901F9018951F9231
:100720000F920FB60F9211242F938F939F93EF93F5
:10073000FF93E0913B01F0913C018081E091410108
:10074000F091420182FD12C09081809144018F5F3F
:100750008F7320914501821751F0E0914401F0E040
:10076000E55DFE4F958F8093440101C08081FF912C
:10077000EF919F918F912F910F900FBE0F901F902F
:1007800018951F920F920FB60F9211242F933F933B
:100790008F939F93AF93BF938091230190912401F6
:1007A000A0912501B09126013091220123E0230F71
:1007B0002D3720F40196A11DB11D05C026E8230F99
:1007C0000296A11DB11D20932201809323019093D5
:1007D0002401A0932501B0932601809127019091D7
:1007E0002801A0912901B0912A010196A11DB11DF6
:1007F0008093270190932801A0932901B0932A01A7
:10080000BF91AF919F918F913F912F910F900FBE0C
:100810000F901F901895CF92DF92EF92FF920F9357
:100820001F93E82FF92F05C0015011092109310943
:1008300061F1908196239417B9F305C00150110915
:100840002109310911F1908196239413F7CFC12C1E
:10085000D12CE12CF12C0AC08FEFC81AD80AE80A73
:10086000F80A0C151D052E053F0579F080818623B9
:10087000841791F36C2D7D2D8E2D9F2D1F910F913F
:10088000FF90EF90DF90CF90089560E070E080E0FF
:1008900090E01F910F91FF90EF90DF90CF9008951F
:1008A000789484B5826084BD84B5816084BD85B54B
:1008B000826085BD85B5816085BD80916E00816057
:1008C00080936E00109281008091810082608093FD
:1008D00081008091810081608093810080918000FF
:1008E0008160809380008091B10084608093B1002A
:1008F0008091B00081608093B00080917A00846024
:1009000080937A0080917A00826080937A0080914F
:100910007A00816080937A0080917A008068809369
:100920007A001092C100E0913B01F0913C0182E01D
:100930008083E0913701F09138011082E091390114
:10094000F0913A0180E1808310924301E0913F01F0
:10095000F091400186E08083E0913D01F0913E01FD
:10096000808180618083E0913D01F0913E01808132
:1009700088608083E0913D01F0913E018081806834
:100980008083E0913D01F0913E0180818F7D8083E5
:10099000E4EBF0E02491E0EAF0E08491882399F020
:1009A00090E0880F991FFC01E859FF4FA591B49181
:1009B000FC01EC56FF4F859194918FB7F894EC9120
:1009C000E22BEC938FBF80E00E949800E5EBF0E013
:1009D0002491E1EAF0E084918823C1F090E0880F4F
:1009E000991FFC01E859FF4FC591D491FC01EC56C9
:1009F000FF4FA591B4919FB7F8948881E22FE095BD
:100A00008E2388838C91E823EC939FBFC3E2D0E0D0
:100A100025EBE22E20E0F22E31EAC32E30E0D32E79
:100A200081E00E949800CE010197F1F780E00E94DA
:100A30009800F7016491F601249130E0220F331FF2
:100A40002E583F4FF9018591949108EA11E620E074
:100A500030E0462F0E940B04611571058105910558
:100A600049F0DC01CB010196A11DB11DBC01CD01F6
:100A70009F7003C060E070E0CB010E94E80620E0B8
:100A800030E040E05FE30E949D072BE734E14EEA4F
:100A90005EE30E949D074B015C0189E890E00E94A3
:100AA000E00042E0C501B4010E94830284E890E0C6
:100AB0000E94E00020E030E040E251E4C501B401D2
:100AC0000E94450642E00E9483028FE790E00E9468
:100AD000E00020E030E04AE754E4C501B4010E94A0
:100AE000450642E00E9483028CE790E00E94E0000D
:100AF0008EE191E00E9430020E940B022B013C012A
:100B000084EF882E99249394A12CB12C0E940B027F
:100B1000DC01CB0184199509A609B709883E9340E9
:100B2000A105B10558F0F1E08F1A9108A108B108AC
:100B300028EE420E23E0521E611C711C81149104A8
:100B4000A104B10419F70E9401026ACFEBE2F1E0BF
:100B50001382128288EE93E0A0E0B0E08483958354
:100B6000A683B78384E091E09183808385EC90E055
:100B70009587848784EC90E09787868780EC90E067
:100B8000918B808B81EC90E0938B828B82EC90E058
:100B9000958B848B86EC90E0978B868B118E128ED2
:100BA000138E148E08955058BB27AA270E94EB0578
:100BB0000C945E070E94500738F00E94570720F0FF
:100BC00039F49F3F19F426F40C944D070EF4E09588
:100BD000E7FB0C944707E92F0E946F0758F3BA17F9
:100BE000620773078407950720F079F4A6F50C9443
:100BF00091070EF4E0950B2EBA2FA02D0B01B90131
:100C000090010C01CA01A0011124FF27591B99F082
:100C1000593F50F4503E68F11A16F040A22F232F8E
:100C2000342F4427585FF3CF469537952795A795DE
:100C3000F0405395C9F77EF41F16BA0B620B730B85
:100C4000840BBAF09150A1F0FF0FBB1F661F771FF6
:100C5000881FC2F70EC0BA0F621F731F841F48F4AB
:100C6000879577956795B795F7959E3F08F0B0CF34
:100C70009395880F08F09927EE0F9795879508951B
:100C80000E94230708F481E008950E9459060C94FD
:100C90005E070E94570758F00E94500740F029F461
:100CA0005F3F29F00C94470751110C9492070C9464
:100CB0004D070E946F0768F39923B1F3552391F311
:100CC000951B550BBB27AA2762177307840738F0BB
:100CD0009F5F5F4F220F331F441FAA1FA9F335D018
:100CE0000E2E3AF0E0E832D091505040E695001CCC
:100CF000CAF72BD0FE2F29D0660F771F881FBB1F86
:100D0000261737074807AB07B0E809F0BB0B802D63
:100D1000BF01FF2793585F4F3AF09E3F510578F08F
:100D20000C9447070C9492075F3FE4F3983ED4F38A
:100D3000869577956795B795F7959F5FC9F7880F63
:100D4000911D9695879597F90895E1E0660F771FB5
:100D5000881FBB1F621773078407BA0720F0621B46
:100D6000730B840BBA0BEE1F88F7E09508950E9471
:100D7000770788F09F5798F0B92F9927B751B0F0AF
:100D8000E1F0660F771F881F991F1AF0BA95C9F70F
:100D900014C0B13091F00E949107B1E008950C9415
:100DA0009107672F782F8827B85F39F0B93FCCF3C8
:100DB000869577956795B395D9F73EF4909580958C
:100DC000709561957F4F8F4F9F4F0895E89409C0AC
:100DD00097FB3EF490958095709561957F4F8F4F6E
:100DE0009F4F9923A9F0F92F96E9BB279395F69584
:100DF000879577956795B795F111F8CFFAF4BB0F02
:100E000011F460FF1BC06F5F7F4F8F4F9F4F16C065
:100E1000882311F096E911C0772321F09EE8872FEF
:100E2000762F05C0662371F096E8862F70E060E0AB
:100E30002AF09A95660F771F881FDAF7880F969524
:100E4000879597F90895990F0008550FAA0BE0E8C8
:100E5000FEEF16161706E807F907C0F0121613067C
:100E6000E407F50798F0621B730B840B950B39F4BC
:100E70000A2661F0232B242B252B21F408950A2622
:100E800009F4A140A6958FEF811D811D089597F962
:100E90009F6780E870E060E008959FEF80EC089520
:100EA00000240A9416161706180609060895002449
:100EB0000A9412161306140605060895092E0394C3
:100EC000000C11F4882352F0BB0F40F4BF2B11F437
:100ED00060FF04C06F5F7F4F8F4F9F4F089557FD96
:100EE0009058440F551F59F05F3F71F04795880F98
:100EF00097FB991F61F09F3F79F08795089512162F
:100F000013061406551FF2CF4695F1DF08C01616DA
:100F100017061806991FF1CF86957105610508948B
:100F20000895E894BB2766277727CB0197F90895A2
:100F30000E94230708F48FEF08950E94B0070C94D5
:100F40005E070E94500738F00E94570720F0952353
:100F500011F00C9447070C944D0711240C94920740
:100F60000E946F0770F3959FC1F3950F50E0551FD6
:100F7000629FF001729FBB27F00DB11D639FAA27EE
:100F8000F00DB11DAA1F649F6627B00DA11D661F3D
:100F9000829F2227B00DA11D621F739FB00DA11D5E
:100FA000621F839FA00D611D221F749F3327A00D18
:100FB000611D231F849F600D211D822F762F6A2FB4
:100FC00011249F5750409AF0F1F088234AF0EE0F19
:100FD000FF1FBB1F661F771F881F91505040A9F746
:100FE0009E3F510580F00C9447070C9492075F3F99
:100FF000E4F3983ED4F3869577956795B795F79582
:10100000E7959F5FC1F7FE2B880F911D96958795F9
:1010100097F908950E942307880B990B0895A1E280
:101020001A2EAA1BBB1BFD010DC0AA1FBB1FEE1F62
:10103000FF1FA217B307E407F50720F0A21BB30BAD
:10104000E40BF50B661F771F881F991F1A9469F729
:1010500060957095809590959B01AC01BD01CF0185
:101060000895EE0FFF1F0590F491E02D099481E0A3
:0C10700090E0F8940C943C08F894FFCF3A
:10107C0000000000980101013001DF0161013F0116
:10108C0053016E616E00696E66006F7666000D0A24
:02109C00000052
:00000001FF
